:020000040800F2
:10000000E83600201D0200089110000801030008D6
:100010008D1000080B070008993700080000000049
:10002000000000000000000000000000811C00082B
:1000300019070008000000008B020008512000088A
:1000400037020008370200083702000837020008AC
:10005000370200083702000837020008370200089C
:10006000370200083702000837020008370200088C
:10007000370200083702000837020008370200087C
:10008000370200083702000837020008370200086C
:10009000370200083702000837020008370200085C
:1000A000370200083702000837020008370200084C
:1000B000370200083702000837020008370200083C
:1000C000370200083702000837020008370200082C
:1000D000370200082D2900086D2A0008292D000884
:1000E000370200083702000837020008370200080C
:1000F00037020008370200083702000837020008FC
:1001000037020008370200083702000837020008EB
:10011000D12800083702000837020008ED20000847
:1001200037020008370200083702000837020008CB
:1001300000F002F800F062F80AA090E8000C824497
:100140008344AAF10107DA4501D100F057F8AFF274
:10015000090EBAE80F0013F0010F18BFFB1A43F0A5
:10016000010318476C9200008C9200000A444FF083
:10017000000C10F8013B13F0070408BF10F8014B06
:100180001D1108BF10F8015B641E05D010F8016B4B
:10019000641E01F8016BF9D113F0080F1EBF10F8AF
:1001A000014BAD1C0C1B09D16D1E58BF01F801CBD2
:1001B000FAD505E014F8016B01F8016B6D1EF9D555
:1001C0009142D6D37047000000230024002500266A
:1001D000103A28BF78C1FBD8520728BF30C148BFAA
:1001E0000B607047642900F02181732900F03D8283
:1001F000002070471FB51FBD10B510BD00F039FAC3
:100200001146FFF7F7FF04F073FC00F057FA03B450
:10021000FFF7F2FF03BC00F05FFA000009488047D7
:1002200009480047FEE7FEE7FEE7FEE7FEE7FEE7D8
:10023000FEE7FEE7FEE7FEE704480549054A064BF0
:10024000704700008D20000831010008E8300020D0
:10025000E8360020E8320020E8320020EFF310807A
:1002600072B6704780F310887047314A1368012BCB
:1002700004D04FF0010313602E4A10602E4A116023
:100280002E484FF0805101607047EFF3108272B634
:100290002748016891B14FF00001016025480168CD
:1002A00029B1EFF3098121E9F00F006801602249CB
:1002B00009680968B1E8F00F81F3098882F31088B2
:1002C0004EF0040E70471C4908601A494FF00000B8
:1002D000086017494FF00100086019484FF47F018A
:1002E000D0F8002041EA0201016014484FF080512B
:1002F000016014480068006880F3088862B670479F
:100300001EF0040F14BFEFF30880EFF3098020E91B
:10031000F00F40F804ED14BF80F3088880F30988DB
:1003200000B505F089FB5DF804EB4EF0040E704754
:1003300070030020680300206C03002004ED00E03F
:1003400020ED00E008ED00E00FB41CB5074B06AA55
:100350007B4469460090059800F05DF900206946ED
:1003600000F06CF91CBC5DF814FB0000E902000011
:100370002DE9F0410E460446002020622046E16847
:10038000884730B3252805D0D4E901219047206A59
:10039000401CF2E7E168204600278847050018D096
:1003A000A5F14100192802D820354FF400673246E4
:1003B000294620462760FFF715FF40B1012804D0E9
:1003C000F61D26F007060836D8E7361DD6E728467C
:1003D000DAE7206ABDE8F08170B50C460546012ACF
:1003E00005D02878800600D5EA69002302E00123C1
:1003F00005E05B1C934202D2E05C0028F9D1A869B9
:10040000E618C01AA861286A184428622846AFF383
:10041000008004E0D5E9012114F8010B9047B442B3
:10042000F8D32846AFF3008070BD00002DE9F041FD
:100430000646002410687529314616A510D0AFF382
:100440000080002802DA404213A507E031688A07DD
:1004500001D512A502E0490704D511A5012401E048
:10046000AFF3008000210A2206F1240709E0B0FB67
:10047000F2FCB0FBF2F302FB1C003030785418465B
:10048000491C0028F3D123462A463046BDE8F041F6
:1004900000F063B8000000002D0000002B000000F9
:1004A0002000000030B505460B462A4613F8014BE4
:1004B00012F8010B08B1A042F8D01CB1002802D0FC
:1004C0006D1CF1E7284630BD10B5431C02E010F862
:1004D000011B71B18107FAD14FF0013202C88C1AA9
:1004E0008C4314EAC211F9D0C01A0A0603D0C01E08
:1004F00010BDC01A10BD0A0401D0801E10BD090233
:10050000FCD0401E10BD4FF0000200B513469446CB
:100510009646203922BFA0E80C50A0E80C50B1F15B
:100520002001BFF4F7AF090728BFA0E80C5048BF6F
:100530000CC05DF804EB890028BF40F8042B08BF0D
:10054000704748BF20F8022B11F0804F18BF00F809
:10055000012B70477047704770472DE9F0470D46F3
:1005600099469246044600F124080168880604D59D
:10057000E06921F01001216000E00120A84201DDC6
:10058000471B00E00027A1697A1902EB0900081A4D
:10059000A0612078C00602D42046AFF30080002678
:1005A00008E0D4E901211AF806009047206A401CAF
:1005B000761C20624E45F4DB2078C0060AD5204622
:1005C000AFF3008006E0D4E9012130209047206A93
:1005D000401C2062381EA7F10107F4DC07E0D4E9D3
:1005E000012118F805009047206A401C2062281E4F
:1005F000A5F10105F3DC2046AFF30080207800066A
:1006000002D50220BDE8F0870120FBE701694A1C02
:1006100002610878704700B58FB0CDE90131002143
:10062000059105497944CDE9031011466846FFF765
:100630009FFE0FB000BD0000E5FFFFFF0A6802F853
:10064000010B0A60704710B5436913B1AFF3008026
:1006500001E0FFF7C1FE012010BD127800F1240176
:100660000A7000224A700122EDE711684FF0FF3254
:10067000E9E7754600F02CF8AE460500694653469A
:1006800020F00700854618B020B5FFF7D5FDBDE87E
:1006900020404FF000064FF000074FF000084FF0E9
:1006A000000B21F00701AC46ACE8C009ACE8C0097A
:1006B000ACE8C009ACE8C0098D46704710B50446E7
:1006C000AFF300802046BDE81040FFF7A0BD00005A
:1006D000004870478830002001491820ABBEFEE773
:1006E00026000200704710B502460B46002000218C
:1006F00008E000EB80046000545C303C0444E0B24D
:100700004C1CE1B29942F4DB10BD00BFFEE702E0F1
:10071000012006F03DFEFBE77047000008B503200E
:100720008DF8020004208DF803004002ADF80000AF
:100730006946124800F026F818208DF803004FF49F
:100740008060ADF8000069460C4800F01BF80420FA
:100750008DF803004002ADF800006946084800F03B
:1007600011F818208DF803004FF48060ADF80000F8
:100770006946034800F006F808BD0000000C01407F
:10078000001001402DE9F05F05460C464FF00009CE
:10079000CA4600260027B046B3465948854211D0C4
:1007A000584885420ED0584885420BD0574885425C
:1007B00008D05748854205D05648854202D0564851
:1007C000854200D103E0B22154A003F069FAE07839
:1007D000A0B1E078042811D0E07828280ED0E07885
:1007E00048280BD0E078142808D0E078102805D0ED
:1007F000E0781C2802D0E078182800D103E0B3216B
:1008000046A003F04DFA002010B9208800B103E0A3
:10081000B42142A003F044FAE07800F00F09E07838
:1008200000F0100080B1A078012805D0A07802283F
:1008300002D0A078032800D103E0BB2137A003F049
:100840002FFAA07840EA0909207838B3D5F800805B
:1008500000261FE0012000FA06F7208800EA070AB8
:10086000BA4516D1B7000F2000FA07FB28EA0B089B
:1008700009FA07F040EA0808E078282803D10120A7
:10088000B040686105E0E078482802D10120B0401E
:100890002861761C082EDDD3C5F800802088FF284B
:1008A0002BDDD5F80480002623E006F108000121A5
:1008B00001FA00F7208800EA070ABA4518D1B70004
:1008C0000F2000FA07FB28EA0B0809FA07F040EAB4
:1008D0000808E078282803D106F108008140696102
:1008E000E078482804D106F10800012181402961FF
:1008F000761C082ED9D3C5F80480BDE8F09F00000F
:1009000000080140000C01400010014000140140AB
:1009100000180140001C0140002001402E2E5C4CBC
:1009200069627261726965735C53544D333246314A
:1009300030785F5374645065726970685F4472699F
:100940007665725C7372635C73746D3332663130DA
:10095000785F6770696F2E63000000002DE9F04733
:1009600004460E460027B8460025A946012C7DD036
:10097000022C7BD0042C79D0082C77D06948844293
:100980007FD06848203084427BD06748844278D04A
:1009900065488030844274D06448844271D0644891
:1009A00084426ED0634884426BD06348844268D0EE
:1009B0006248844265D0B4F5805F62D0B4F5EA1F26
:1009C0005FD0B4F5EB1F5CD0B4F5004F59D05C4854
:1009D000844256D0401C844253D0801C844250D064
:1009E000001D84424DD056480F30844249D0B4F1A6
:1009F000201F46D04FEAF030844242D05148844212
:100A00003FD0514884423CD05048844239D050486D
:100A1000844236D04F48844233D0B4F5011F30D0E1
:100A20004D4884422DD0401C84422AD0801C8442F0
:100A300027D0001D844224D047480F30844220D064
:100A400045481F3084421CD043483F30844218D070
:100A500041487F30844214D03F48FF30844210D058
:100A60003E4884420DD03E48844200E009E008D070
:100A70003C48844205D03C48844202D03B488442F2
:100A800000D104E040F22A2139A003F009F90EB1A7
:100A9000012E00D104E040F22B2135A003F000F933
:100AA00004F00040B0F1004F02D14148C56901E0B7
:100AB0003F484568C4F30349A7B204F44010B0F5B9
:100AC000401F08D125F070653948406820F07060FB
:100AD0003749486013E004F48010B0F5801F07D157
:100AE000032000FA09F825EA080545F0706506E0DC
:100AF000600D000107FA00F0854345F0706526B1EE
:100B0000600D010107FA01F0054304F00040B0F167
:100B1000004F02D12648C56101E025484560BDE887
:100B2000F0870000100014004000160000011800BB
:100B3000000218000003180000081A00000C1A0038
:100B400001002000000130000002300000043000ED
:100B50000011200000202000010000800002008021
:100B60000004008000080080001000800020008049
:100B70002E2E5C4C69627261726965735C53544DD0
:100B80003332463130785F537464506572697068EF
:100B90005F4472697665725C7372635C73746D3303
:100BA00032663130785F6770696F2E630000000035
:100BB0000000014010B504460E48844211D00E4892
:100BC00084420ED00D4884420BD00D48844208D098
:100BD0000C48844205D00C48844202D00B48844221
:100BE00000D104E04FF49A7109A003F059F8A0680D
:100BF00080B210BD00080140000C0140001001400F
:100C00000014014000180140001C01400020014078
:100C10002E2E5C4C69627261726965735C53544D2F
:100C20003332463130785F5374645065726970684E
:100C30005F4472697665725C7372635C73746D3362
:100C400032663130785F6770696F2E630000000094
:100C500070B505460C4600262848854211D0284824
:100C600085420ED0274885420BD02748854208D0C0
:100C70002648854205D02648854202D0254885422F
:100C800000D104E04FF48F7123A003F009F8012C88
:100C900025D0022C23D0042C21D0082C1FD0102CBE
:100CA0001DD0202C1BD0402C19D0802C17D0B4F58F
:100CB000807F14D0B4F5007F11D0B4F5806F0ED0D2
:100CC000B4F5006F0BD0B4F5805F08D0B4F5005FC9
:100CD00005D0B4F5804F02D0B4F5004F00D104E048
:100CE00040F21F110CA002F0DBFFA868204008B101
:100CF000012600E00026304670BD000000080140DB
:100D0000000C014000100140001401400018014097
:100D1000001C0140002001402E2E5C4C6962726173
:100D2000726965735C53544D3332463130785F538A
:100D300074645065726970685F4472697665725C4C
:100D40007372635C73746D3332663130785F6770D1
:100D5000696F2E630000000070B504460D4613480D
:100D6000844211D0124884420ED0124884420BD0E3
:100D70001148844208D01148844205D0104884426A
:100D800002D01048844200D104E040F279110EA054
:100D900002F086FF002008B905B104E04FF4BD71F0
:100DA00009A002F07DFF656170BD000000080140F0
:100DB000000C0140001001400014014000180140E7
:100DC000001C0140002001402E2E5C4C69627261C3
:100DD000726965735C53544D3332463130785F53DA
:100DE00074645065726970685F4472697665725C9C
:100DF0007372635C73746D3332663130785F677021
:100E0000696F2E630000000070B504460D4613485C
:100E1000844211D0124884420ED0124884420BD032
:100E20001148844208D01148844205D010488442B9
:100E300002D01048844200D104E040F269110EA0B3
:100E400002F02EFF002008B905B104E04FF4B5719F
:100E500009A002F025FF256170BD000000080140D7
:100E6000000C014000100140001401400018014036
:100E7000001C0140002001402E2E5C4C6962726112
:100E8000726965735C53544D3332463130785F5329
:100E900074645065726970685F4472697665725CEB
:100EA0007372635C73746D3332663130785F677070
:100EB000696F2E63000000001CE00F4800780128D5
:100EC00015D10E48007890B100200C4908700C49EB
:100ED00008700B210B4802F039FC0B48007830B148
:100EE0000A4800680949886008468068486001200F
:100EF00006F04EFAE1E700009E000020A10000206D
:100F000028000020882800203C0000207C270020AA
:100F10002DE9F041002600250948FFF74BFEC0F3FC
:100F2000023080F0070484EA050000EA0406254642
:100F30004FF4967006F02CFA37193846BDE8F08168
:100F4000000C014003F098FC63E003F0A9FC2328A7
:100F500040D006DC122809D0132848D0222853D1CB
:100F600011E032281CD033284ED126E029480078E1
:100F700040B92948007840F008002749087001204E
:100F80002449087044E02348007840B9224800789A
:100F900040F020002049087001201E49087037E009
:100FA0001C48007840B91C48007840F002001A49FB
:100FB00008700120174908702AE01648007840B9E7
:100FC0001548007840F001001349087001201149CC
:100FD00008701DE00F48007840B90F48007840F0D5
:100FE00010000D49087001200A49087010E00948F6
:100FF000007840B90848007840F0040006490870BD
:1010000001200449087003E000200249087000BF75
:1010100000BF9AE73E0000202A00002030B50246BB
:101020000C46002300202EE0002126E001EB4005C5
:10103000555D402D0DDD01EB4005555D472D08DA6E
:101040001D072B0E01EB4005555D373D1D44EBB2EE
:1010500011E001EB4005555D2F2D0CDD01EB400546
:10106000555D3A2D07DA1D072B0E01EB4005555D46
:10107000303D1D44EBB24D1CE9B20229D6DB2354AE
:101080000023451CE8B20628CEDB30BD00BFFEE7DA
:10109000704710B500214FF0006000F083F810BDDC
:1010A00038B5044620798DF8000000208DF8010045
:1010B0008DF8020001208DF80300684600F002F868
:1010C00038BD00002DE9F0410446002500270F2619
:1010D000E07810B1E078012800D103E0752121A06B
:1010E00002F0DEFD6078102800DA03E076211DA012
:1010F00002F0D6FDA078102800DA03E0772119A0CD
:1011000002F0CEFDE07800B32348006800F4E06010
:10111000C0F5E060050AC5F10407EE40607800FA0A
:1011200007F5A078304005432D011C4822788554EE
:10113000207800F01F0101208840217849118900A2
:1011400001F1E021C1F8000109E0207800F01F0161
:101150000120884012492278521141F82200BDE84E
:10116000F08100002E2E5C4C6962726172696573B9
:101170005C53544D3332463130785F53746450655C
:10118000726970685F4472697665725C7372635CE1
:101190006D6973632E6300000CED00E000E400E075
:1011A00080E100E070B504460D46B4F1005F02D066
:1011B000B4F1006F00D103E09F2109A002F070FD9F
:1011C0001448854200D203E0A02105A002F068FD8A
:1011D000114905EA010020431049086070BD000074
:1011E0002E2E5C4C69627261726965735C53544D5A
:1011F0003332463130785F53746450657269706879
:101200005F4472697665725C7372635C6D69736367
:101210002E630000FFFF0F0080FFFF1F08ED00E0BE
:1012200070B504460D461048204008B904B104E0EA
:1012300040F269410DA002F033FD0DB1012D00D146
:1012400004E040F26A4109A002F02AFD2DB11648DF
:10125000C06920431449C86104E01348C069A04331
:101260001149C86170BD0000003601812E2E5C4C12
:1012700069627261726965735C53544D33324631F1
:1012800030785F5374645065726970685F44726946
:101290007665725C7372635C73746D333266313081
:1012A000785F7263632E63000010024070B50446DD
:1012B0000D461048204008B904B104E040F2C34193
:1012C0000DA002F0EDFC0DB1012D00D104E040F2C3
:1012D000C44109A002F0E4FC2DB116480069204386
:1012E0001449086104E013480069A04311490861EA
:1012F00070BD0000003601812E2E5C4C6962726167
:10130000726965735C53544D3332463130785F53A4
:1013100074645065726970685F4472697665725C66
:101320007372635C73746D3332663130785F7263ED
:10133000632E63000010024070B504460D4610484D
:10134000204008B904B104E040F24A410DA002F087
:10135000A7FC0DB1012D00D104E040F24B4109A0E2
:1013600002F09EFC2DB11648806920431449886123
:1013700004E013488069A0431149886170BD0000F2
:101380000200C0FF2E2E5C4C696272617269657347
:101390005C53544D3332463130785F53746450653A
:1013A000726970685F4472697665725C7372635CBF
:1013B00073746D3332663130785F7263632E63000D
:1013C0000010024070B504460D461048204008B990
:1013D00004B104E040F2A4410DA002F061FC0DB1A3
:1013E000012D00D104E040F2A54109A002F058FC13
:1013F0002DB11648C06820431449C86004E0134862
:10140000C068A0431149C86070BD00000200C0FF61
:101410002E2E5C4C69627261726965735C53544D27
:101420003332463130785F53746450657269706846
:101430005F4472697665725C7372635C73746D335A
:1014400032663130785F7263632E630000100240B1
:1014500010B501210820FFF76FFF01218804FFF775
:10146000DFFE01211020FFF767FF0121C804FFF70D
:10147000D7FE10BD30B500210022002400232D4DE1
:101480006D6805F00C0121B1042905D0082923D18C
:1014900005E0294D056022E0274D05601FE0254D40
:1014A0006D6805F47012234D6D6805F480340225D3
:1014B00005EB92421CB9214D554305600BE01D4DD3
:1014C0006D6805F400351DB11C4D5543056002E003
:1014D000194D5543056002E0174D056000BF00BF80
:1014E000144D6D6805F0F0010909154D6B5C056838
:1014F000DD4045600F4D6D6805F4E061090A104D4F
:101500006B5C4568DD4085600A4D6D6805F460518F
:10151000C90A0B4D6B5C4568DD40C560054D6D68C3
:1015200005F44041890B074D6B5CC568B5FBF3F5CD
:10153000056130BD0010024000127A0000093D0034
:10154000000000201000002070B504460D4612482F
:10155000844205D01148844202D01148844200D10F
:1015600004E04FF4D7710FA002F09AFB0DB1012DEA
:1015700000D104E040F2AF110AA002F091FB25B1C6
:10158000208840F04000208004E020884FF6BF71A2
:101590000840208070BD000000300140003800404D
:1015A000003C00402E2E5C4C69627261726965736A
:1015B0005C53544D3332463130785F537464506518
:1015C000726970685F4472697665725C7372635C9D
:1015D00073746D3332663130785F7370692E6300D7
:1015E00070B505460C46164610211048FFF7B4FBAF
:1015F000032000F071F9C4F3074000F06DF9C4F363
:10160000072000F069F9E0B200F066F904E0FF207D
:1016100000F062F928706D1C301EA6F101018EB237
:10162000F5D110210148FFF7EFFB70BD0008014024
:101630002DE9F05F07460E4614464FF00008C146FC
:10164000C2460025AB4606F0FF0ACAF10000C5B24B
:101650002046E11704EB1161C1F30728E11704EB01
:1016600011610912A4EB012101F0FF09BAF1000F89
:1016700020D1B8F1000F05D122463146384600F09E
:10168000D9F864E009E04FF480723146384600F042
:10169000D1F806F5807607F58077B8F10000A8F15B
:1016A000010101F0FF08EED14A463146384600F00C
:1016B000C1F84CE0B8F1000F18D1A94510DDA9EB35
:1016C000050000F0FF0B2A463146384600F0B2F81C
:1016D0002E442F445A463146384600F0ABF836E0E7
:1016E00022463146384600F0A5F830E0601B84B24F
:1016F0002046E11704EB1161C1F30728E11704EB61
:1017000011610912A4EB012101F0FF092A463146BB
:10171000384600F08FF82E442F4409E04FF48072D1
:101720003146384600F086F806F5807607F5807772
:10173000B8F10000A8F1010101F0FF08EED1B9F104
:10174000000F04D04A463146384600F073F8BDE831
:10175000F09F000010B500F0F5F810210648FFF7E3
:10176000FBFAC72000F0B8F810210348FFF74CFB44
:1017700000F0CEF810BD00000008014000B587B0B1
:1017800001213420FFF7D8FD01210803FFF7D4FD24
:101790002020ADF8040003208DF8060018208DF8F5
:1017A000070001A92148FEF7EDFF4020ADF8040035
:1017B00001A91E48FEF7E6FF8020ADF8040001A94C
:1017C0001A48FEF7DFFF1020ADF804008DF807007F
:1017D00001A91648FEF7D6FF10211448FFF714FBA5
:1017E0000020ADF808004FF48270ADF80A00002028
:1017F000ADF80C000220ADF80E000120ADF810008D
:101800004002ADF812000020ADF81400ADF816004B
:101810000120ADF8180002A9054800F069F901217E
:101820000348FFF791FE07B000BD0000000801402B
:101830000030014070B505460C46164600F082F8AF
:1018400010211348FFF788FA022000F045F8C4F38E
:10185000074000F041F8C4F3072000F03DF8E0B283
:1018600000F03AF8B6F5807F01DD4FF4807603E0B2
:10187000287800F031F86D1C301EA6F101018EB2FF
:10188000F6D110210248FFF7BFFA00F041F870BD11
:101890000008014010B5044600F054F800F038F894
:1018A00010210C48FFF758FA202000F015F8C4F377
:1018B000074000F011F8C4F3072000F00DF8E0B283
:1018C00000F00AF810210348FFF79EFA00F020F814
:1018D00010BD00000008014010B5044600BF022101
:1018E0000A4800F03FF80028F9D02146074800F0E8
:1018F000C7F800BF0121054800F034F80028F9D0EE
:10190000024800F085F8C0B210BD00000030014070
:1019100010B5002410210A48FFF71EFA0520FFF732
:10192000DBFF00BFFF20FFF7D7FF044604F00100F4
:101930000028F7D110210248FFF766FA10BD000019
:101940000008014010B510210548FFF705FA0620F0
:10195000FFF7C2FF10210248FFF756FA10BD000042
:101960000008014070B505460C4600261648854221
:1019700005D01648854202D01548854200D104E0C2
:1019800040F2023113A002F08BF9802C0DD0402CD4
:101990000BD0202C09D0102C07D0082C05D0042CFB
:1019A00003D0022C01D0012C00D104E040F203311D
:1019B00008A002F075F92889204008B1012600E04E
:1019C0000026304670BD0000003001400038004065
:1019D000003C00402E2E5C4C696272617269657336
:1019E0005C53544D3332463130785F5374645065E4
:1019F000726970685F4472697665725C7372635C69
:101A000073746D3332663130785F7370692E6300A2
:101A100010B504460848844205D00848844202D0E4
:101A20000748844200D104E040F2362105A002F0CC
:101A300037F9A08910BD0000003001400038004097
:101A4000003C00402E2E5C4C6962726172696573C5
:101A50005C53544D3332463130785F537464506573
:101A6000726970685F4472697665725C7372635CF8
:101A700073746D3332663130785F7370692E630032
:101A800070B504460D460848844205D00748844294
:101A900002D00748844200D104E040F2262105A08C
:101AA00002F0FEF8A58170BD003001400038004012
:101AB000003C00402E2E5C4C696272617269657355
:101AC0005C53544D3332463130785F537464506503
:101AD000726970685F4472697665725C7372635C88
:101AE00073746D3332663130785F7370692E6300C2
:101AF00070B505460C4600264F48854205D04F4834
:101B0000854202D04E48854200D103E0A3214DA07A
:101B100002F0C6F8208858B12088B0F5806F07D051
:101B20002088B0F5004F03D02088B0F5404F00D199
:101B300003E0A62143A002F0B3F86088B0F5827FED
:101B400001D0608800B903E0A7213EA002F0A8F808
:101B5000A088B0F5006F01D0A08800B903E0A821EB
:101B600038A002F09DF8E08810B1E088022800D18A
:101B700003E0A92133A002F093F8208910B1208955
:101B8000012800D103E0AA212EA002F089F8608983
:101B9000B0F5007F01D0608900B903E0AB2129A036
:101BA00002F07EF8A089A0B1A089082811D0A089F0
:101BB00010280ED0A08918280BD0A089202808D082
:101BC000A089282805D0A089302802D0A0893828EB
:101BD00000D103E0AC211BA002F062F8E08910B153
:101BE000E089802800D103E0AD2116A002F058F86A
:101BF000208A012800DB03E0AE2112A002F050F899
:101C00002E8806F44156208861880843A18808433D
:101C1000E18808432189084361890843A189084371
:101C2000E189084306432E80A88B4FF2FF710840DC
:101C3000A883208A288270BD00300140003800400F
:101C4000003C00402E2E5C4C6962726172696573C3
:101C50005C53544D3332463130785F537464506571
:101C6000726970685F4472697665725C7372635CF6
:101C700073746D3332663130785F7370692E630030
:101C80007047000070B505460C462048006804EB1C
:101C9000440100EB810000F4001068B11B480068AB
:101CA00004EB440100EB8100C0F3140017494968BC
:101CB000884201D9002070BD04EB44008200134823
:101CC00001682846FFF7B4FC1048006804EB4401A3
:101CD00000EB8100C0F314000C490860084600685E
:101CE0004968884209D20948006800F50010074990
:101CF0004968401A0649086006E00448006803493C
:101D00004968401A024908600120D4E77C27002076
:101D100094000020002002490860486088607047F5
:101D20007C27002070B505460C4672B612488068C4
:101D300011490968884202D162B6002070BD0E4880
:101D4000816822462846FFF74BFC0B488068000B51
:101D5000094989682144B0EB113F03D006498868DE
:101D6000FFF798FD044880682044C0F3140002493E
:101D7000886062B60120E1E77C27002070B5054647
:101D80000E4600242878682800D070BDA87830B1AD
:101D9000012805D0022804D0602800D1D3E0D6E085
:101DA000D5E06878801E0A2190FBF1F0694908703F
:101DB0000024B5E004EB8401681D10F8110004EB69
:101DC0004401002202EB8101634A505404EB840178
:101DD000A81D10F8110004EB4401012202EB81015F
:101DE0005D4A505404EB8401E81D10F8110004EB27
:101DF0004401022202EB8101574A505404EB840152
:101E000005F1080010F8110004EB4401032202EB75
:101E10008101514A505404EB840105F1090010F886
:101E2000110004EB4401042202EB81014A4A5054A0
:101E300004EB840105F10A0010F8110004EB4401E1
:101E4000052202EB8101444A505404EB840105F160
:101E50000B0010F8110004EB4401062202EB810193
:101E60003D4A505404EB840105F10C0010F81100B8
:101E700004EB4401072202EB8101374A505404EB82
:101E80008401E81C10F81100042810D104EB84012F
:101E9000281D10F8110000F07F0040F0800004EBD6
:101EA0004401082202EB81012B4A505417E004EB55
:101EB0008401E81C10F81100072810D104EB8401FC
:101EC000281D10F8110000F07F0004EB44010822E7
:101ED00002EB8101204A505401202049087020481B
:101EE000007804EB4401092202EB81011A4A5054A4
:101EF0001B480088C0F3072004EB44010A2202EBD0
:101F00008101154A505416480068C0F3074004EB9D
:101F100044010B2202EB81010F4A5054601CC4B2F1
:101F20000C4800788442FFF645AF0A4801780A4819
:101F3000FFF7A8FE07480178074806F0A7FD012033
:101F40000849087003E000200449087000BF00BF82
:101F500000BF1AE7A5000020882700209C00002071
:101F6000980000209D00002010B500F001F810BD81
:101F70000CB50020019000903348006840F4803098
:101F80003149086000BF3048006800F4003000901C
:101F90000198401C0190009818B90198B0F5A06F05
:101FA000F1D12948006800F4003010B10120009000
:101FB00001E0002000900098012843D123480068E8
:101FC00040F01000214908600846006820F0030036
:101FD00008600846006840F0020008601A4840683F
:101FE000194948600846406848600846406840F41F
:101FF000806048600846406820F47C1048600846CD
:10200000406840F4E81048600846006840F080707E
:10201000086000BF0C48006800F000700028F9D08C
:102020000948406820F003000749486008464068B6
:1020300040F00200486000BF0348406800F00C0018
:102040000828F9D10CBD0000001002400020024019
:1020500010B503F07BFF05F015FC0A480078401C22
:102060000849087008460078092807DB0648006818
:10207000401C0549086000200249087003F07EFFFB
:1020800010BD00003F0000209800002010B513484C
:10209000006840F001001149086008464068104996
:1020A00008400E494860084600680E4908400B4940
:1020B00008600846006820F48020086008464068F0
:1020C00020F4FE0048604FF41F008860FFF74CFFCB
:1020D0004FF000600449086010BD0000001002408D
:1020E0000000FFF8FFFFF6FE08ED00E010B501214B
:1020F000094800F05DF968B10848008840F40040E4
:10210000064908800121044800F03AF800210248FD
:1021100000F0BEF810BD0000001400407C0000205C
:102120007FB505460C4601212020FFF779F8ADF870
:102130000450ADF800400020ADF80600ADF80200F4
:1021400069460E4800F0ECFA012211460B4800F0F7
:10215000D3F90121094800F09BF837208DF80C00D5
:1021600000208DF80D0002208DF80E0001208DF862
:102170000F0003A8FEF7A6FF7FBD0000001400407B
:1021800070B504460D46234884422FD0B4F1804FE9
:102190002CD02148844229D02048844226D020488F
:1021A000844223D01F48844220D01F4884421DD03F
:1021B0001E4884421AD01E48844217D01D488442CB
:1021C00014D01D48844211D01C4884420ED01C48B3
:1021D00084420BD01B48844208D01B48844205D05F
:1021E0001A48844202D01A48844200D104E040F6E2
:1021F000772118A001F054FD05F47F4008B905B11E
:1022000004E040F6782113A001F04AFDE843208263
:1022100070BD0000002C0140000400400008004098
:10222000000C004000100040001400400034014049
:10223000004C014000500140005401400018004093
:10224000001C0040002000400040014000440140CC
:10225000004801402E2E5C4C6962726172696573A0
:102260005C53544D3332463130785F53746450655B
:10227000726970685F4472697665725C7372635CE0
:1022800073746D3332663130785F74696D2E63001C
:1022900070B504460D46274884422FD0B4F1804FD4
:1022A0002CD02548844229D02448844226D0244872
:1022B000844223D02348844220D0234884421DD026
:1022C000224884421AD02248844217D021488442AE
:1022D00014D02148844211D0204884420ED0204896
:1022E00084420BD01F48844208D01F48844205D046
:1022F0001E48844202D01E48844200D104E040F2CD
:1023000029311CA001F0CCFC0DB1012D00D104E05D
:1023100040F22A3117A001F0C3FC25B1208840F01B
:102320000100208004E020884FF6FE7108402080E4
:1023300070BD0000002C0140000400400008004077
:10234000000C004000100040001400400034014028
:10235000004C014000500140005401400018004072
:10236000001C0040002000400040014000440140AB
:10237000004801402E2E5C4C69627261726965737F
:102380005C53544D3332463130785F53746450653A
:10239000726970685F4472697665725C7372635CBF
:1023A00073746D3332663130785F74696D2E6300FB
:1023B0002DE9F04104460D4600260027B0462F487F
:1023C00084422FD0B4F1804F2CD02D48844229D0A4
:1023D0002C48844226D02C48844223D02B48844267
:1023E00020D02B4884421DD02A4884421AD02A4843
:1023F000844217D02948844214D02948844211D0FD
:10240000284884420ED0284884420BD02748844272
:1024100008D02748844205D02648844202D0264866
:10242000844200D104E040F64D2124A001F038FCA4
:10243000012D0DD0022D0BD0042D09D0082D07D071
:10244000102D05D0202D03D0402D01D0802D00D19E
:1024500004E040F64E2119A001F022FC208A00EA97
:102460000507A08900EA050827B1B8F1000F01D0DF
:10247000012600E000263046BDE8F081002C014036
:102480000004004000080040000C00400010004024
:102490000014004000340140004C01400050014055
:1024A0000054014000180040001C00400020004083
:1024B0000040014000440140004801402E2E5C4C89
:1024C00069627261726965735C53544D333246318F
:1024D00030785F5374645065726970685F447269E4
:1024E0007665725C7372635C73746D33326631301F
:1024F000785F74696D2E630070B504460D4616460C
:102500002A4884422FD0B4F1804F2CD028488442EE
:1025100029D02848844226D02748844223D02748FF
:10252000844220D0264884421DD0264884421AD0B6
:102530002548844217D02548844214D02448844238
:1025400011D0244884420ED0234884420BD0234823
:10255000844208D02248844205D02248844202D0D6
:102560002148844200D104E040F26B311FA001F009
:1025700097FB05F47F4008B905B104E04FF45B71A7
:102580001AA001F08DFB0EB1012E00D104E040F243
:102590006D3116A001F084FB1EB1A0892843A081F3
:1025A00002E0A089A843A08170BD0000002C01407A
:1025B0000004004000080040000C004000100040F3
:1025C0000014004000340140004C01400050014024
:1025D0000054014000180040001C00400020004052
:1025E0000040014000440140004801402E2E5C4C58
:1025F00069627261726965735C53544D333246315E
:1026000030785F5374645065726970685F447269B2
:102610007665725C7372635C73746D3332663130ED
:10262000785F74696D2E630070B504460D461D48D1
:1026300084422FD0B4F1804F2CD01B48844229D043
:102640001A48844226D01A48844223D0194884422A
:1026500020D0194884421DD0184884421AD0184806
:10266000844217D01748844214D01748844211D0AE
:10267000164884420ED0164884420BD01548844236
:1026800008D01548844205D01448844202D014482A
:10269000844200D104E040F6DB0112A001F000FB0F
:1026A000A58470BD002C01400004004000080040DB
:1026B000000C0040001000400014004000340140B5
:1026C000004C0140005001400054014000180040FF
:1026D000001C004000200040004001400044014038
:1026E000004801402E2E5C4C69627261726965730C
:1026F0005C53544D3332463130785F5374645065C7
:10270000726970685F4472697665725C7372635C4B
:1027100073746D3332663130785F74696D2E630087
:1027200070B504460D4600264A4884422FD0B4F1C5
:10273000804F2CD04848844229D04848844226D033
:102740004748844223D04748844220D046488442A8
:102750001DD0464884421AD04548844217D0454887
:10276000844214D04448844211D0444884420ED05C
:10277000434884420BD04348844208D042488442B4
:1027800005D04248844202D04148844200D103E04F
:10279000E72140A001F084FA688858B168881028C1
:1027A00008D06888202805D06888402802D068882A
:1027B000602800D103E0E82136A001F071FAE88832
:1027C00038B1E888B0F5807F03D0E888B0F5007FA5
:1027D00000D103E0E9212FA001F062FA26881D480C
:1027E00084420ED0214884420BD0B4F1804F08D0EF
:1027F0001948844205D01948844202D018488442BE
:1028000004D14FF68F70064068880643154884420D
:1028100007D01548844204D04FF6FF400640E888B0
:1028200006432680A888A0852888208509488442F8
:102830000BD00E48844208D01348844205D0134878
:10284000844202D01248844201D1287A2086012095
:10285000A08270BD002C0140000400400008004030
:10286000000C004000100040001400400034014003
:10287000004C01400050014000540140001800404D
:10288000001C004000200040004001400044014086
:10289000004801402E2E5C4C69627261726965735A
:1028A0005C53544D3332463130785F537464506515
:1028B000726970685F4472697665725C7372635C9A
:1028C00073746D3332663130785F74696D2E6300D6
:1028D00010B5144C03F03AFB40F22551206800F08B
:1028E00093FC40B10121104803F0DAF940F2255180
:1028F000206800F047FA40F22661206800F084FC6E
:1029000020B140F22661206800F03CFA08212068DE
:1029100000F000FC012802D1034805F0E3FC03F0BD
:102920002DFB10BD480000204C1D002010B503F009
:102930000DFB0821444800F0EDFB10B1424800F0C7
:10294000BFFE4148008800F08000F0B13E480C30E6
:10295000008800F08000C0B13C4801780078401C3D
:102960003A4A10703A48405C3749091D08801046C1
:10297000007838490978884207D133480C300088FC
:1029800020F0800030490C3108802F48008800F08A
:102990002000002854D02C48001D0088C4B22E48C6
:1029A000007820B101280AD0022844D114E0682C14
:1029B00004D1012028490870284804703FE0322CD7
:1029C00009DA02202449087024484470244804701D
:1029D00000202449087032E02148007800281CDDDE
:1029E0001F480078401E1E4908701E4800781D4987
:1029F0000978491C1B4A1170801C18490C5418484E
:102A00000078B8B900201449087010460078801C7E
:102A1000C1B21248FFF7B2F90CE013480078401C2D
:102A20001149087008460078012803DB002008706F
:102A30000949087003E000200749087000BF00BF83
:102A400003F09CFA10BD0000003801408100002016
:102A50005820002080000020870000208A200020CD
:102A600085000020860000208400002070B503F05F
:102A70006DFA03F06BFA8B48007810B101282CD165
:102A80002CE040F22551884800F0BEFB28B3864870
:102A900000F016FEC5B28548008800F40040E0B999
:102AA00082480088C82812DA00218148FFF7BCFD5F
:102AB0007E48008818B901217D48FFF7E9FB7B4972
:102AC0000888411C794A11807A490D5405E07748FD
:102AD000008840F4004075490880DFE00821724812
:102AE00000F018FB10B1704800F0EAFD6E48008855
:102AF00000F08000F0B16C480C30008800F08000DD
:102B0000C0B16D4801780078401C6B4A10706B486A
:102B1000405C6549091D08801046007868490978BD
:102B2000884207D160480C30008820F080005E4960
:102B30000C3108805C48008800F02000002879D023
:102B40005948001D0088C4B25E480078082872D237
:102B5000DFE800F0040C141A2F56808EFA2C04D1F2
:102B60000120584908705848047095E00A2C04D197
:102B7000022054490870544844708DE003205149A4
:102B800008705148847087E050480078C01C4E4956
:102B90000C544E480078401C4C4908700846007898
:102BA000012805DD0020087004204649087073E004
:102BB00072E046480078401D43490C544348007871
:102BC000401C4249087008460078012817DD0020A3
:102BD00008703D4840793C49897940EA01203C49E8
:102BE000087000203B4908703948007818B9062061
:102BF0003449087050E00520324908704CE04BE041
:102C000033480078002817DD31480078401E3049ED
:102C10000870304800782F490978491C2D4A1170F6
:102C2000C01D29490C542A48007890B9062025492E
:102C3000087031E031E02BE027480078401C26493D
:102C4000087008460078012803DD002008701D493F
:102C5000087021E01F4800781E490978491C1D4A68
:102C60001170C01D18490C5407201649087013E054
:102C700018480078C01D14490C54164800780830D4
:102C8000C1B2114805F086FD00200E49087003E02E
:102C900000200C49087000BF00BF00BF00BF03F058
:102CA0006DF970BD50000020004400407C00002001
:102CB00000140040001E0020830000208A21002014
:102CC000820000208B0000208A2200208C0000203F
:102CD000890000208A0000208800002000BF0949E8
:102CE000098801F080010029F9D0C1B2054A121DFE
:102CF000118000BF0349098801F040010029F9D083
:102D0000704700000044004070B505462846FDF7B6
:102D1000DBFB86B2002404E0285DFFF7DFFF601CC8
:102D200084B2B442F8DB70BD10B5144C03F00EF958
:102D300040F22551206800F067FA40B101211048A7
:102D400002F0AEFF40F22551206800F01BF840F27F
:102D50002661206800F058FA20B140F22661206810
:102D600000F010F80821206800F0D4F9012802D101
:102D7000034805F0B7FA03F001F910BD4000002048
:102D8000F81C00202DE9F04104460D4600260027DE
:102D9000224884420BD02248844208D021488442F1
:102DA00005D02148844202D02048844200D104E06A
:102DB00040F20A411EA000F073FF40F226608542F7
:102DC0000BD040F22550854207D040F646008542A0
:102DD00003D040F66A10854200D104E040F20B4176
:102DE00013A000F05DFF40F66A1085420ED10B483B
:102DF000844205D00A48844202D00A48844200D165
:102E000004E040F20F410AA000F04AFF2E12012018
:102E1000B04087B2F8432080BDE8F081003801401F
:102E20000044004000480040004C0040005000407A
:102E30002E2E5C4C69627261726965735C53544DED
:102E40003332463130785F5374645065726970680C
:102E50005F4472697665725C7372635C73746D3320
:102E600032663130785F75736172742E63000000D2
:102E700070B505460C4600262648854205D02648F2
:102E8000854202D02548854200D104E04FF4997173
:102E900023A000F005FF208818B12088B0F5006F4E
:102EA00000D104E040F233111DA000F0F9FE60886B
:102EB00018B16088B0F5806F00D104E04FF49A71CA
:102EC00017A000F0EDFEA08818B1A088B0F5007F33
:102ED00000D104E040F2351111A000F0E1FEE088DD
:102EE00018B1E088B0F5807F00D104E04FF49B7109
:102EF0000BA000F0D5FE2E8A4FF2FF00064020887E
:102F000061880843A1880843E188084306432E826C
:102F100070BD0000003801400044004000480040FF
:102F20002E2E5C4C69627261726965735C53544DFC
:102F30003332463130785F5374645065726970681B
:102F40005F4472697665725C7372635C73746D332F
:102F500032663130785F75736172742E63000000E1
:102F600070B504460D46154884420BD0144884427F
:102F700008D01448844205D01348844202D0134834
:102F8000844200D104E04FF4B17111A000F088FE3A
:102F90000DB1012D00D104E040F263110CA000F04E
:102FA0007FFE25B1A08940F40050A08104E0A089F3
:102FB0004DF6FF710840A08170BD0000003801404F
:102FC0000044004000480040004C004000500040D9
:102FD0002E2E5C4C69627261726965735C53544D4C
:102FE0003332463130785F5374645065726970686B
:102FF0005F4472697665725C7372635C73746D337F
:1030000032663130785F75736172742E6300000030
:1030100010B504462A4884420BD02A48844208D07E
:103020002948844205D02948844202D02848844255
:1030300000D103E0852127A000F032FE2048844221
:1030400009D101218803FEF7BDF900214FF480402A
:10305000FEF7B8F932E01B48844209D10121480447
:10306000FEF724F900214FF40030FEF71FF925E0A8
:103070001548844209D101218804FEF717F900217F
:103080004FF48020FEF712F918E01048844209D16D
:103090000121C804FEF70AF900214FF40020FEF7D1
:1030A00005F90BE00A48844208D101210805FEF722
:1030B000FDF800214FF48010FEF7F8F810BD000075
:1030C000003801400044004000480040004C0040EF
:1030D000005000402E2E5C4C69627261726965730B
:1030E0005C53544D3332463130785F5374645065CD
:1030F000726970685F4472697665725C7372635C52
:1031000073746D3332663130785F75736172742E0B
:103110006300000070B505460C4600262548854230
:103120000BD02548854208D02448854205D0244844
:10313000854202D02348854200D104E040F26E313E
:1031400021A000F0ADFD012C13D0802C11D0402C1B
:103150000FD0202C0DD0102C0BD0B4F5807F08D0D0
:10316000B4F5007F05D0082C03D0042C01D0022C2C
:1031700000D104E040F26F3113A000F091FDB4F5EE
:10318000007F0ED10B48854205D00B48854202D006
:103190000A48854200D104E040F273310AA000F0F1
:1031A0007FFD2888204008B1012600E00026304637
:1031B00070BD00000038014000440040004800405D
:1031C000004C0040005000402E2E5C4C6962726141
:1031D000726965735C53544D3332463130785F53B6
:1031E00074645065726970685F4472697665725C78
:1031F0007372635C73746D3332663130785F7573EC
:103200006172742E630000002DE9F04705460C46FC
:1032100000270026B046B1463A4885420BD03A48CE
:10322000854208D03948854205D03948854202D0C8
:103230003848854200D104E040F2C13136A000F0A8
:103240002FFD282C20D040F2277084421CD040F261
:103250002660844218D040F22550844214D040F2B7
:103260002440844210D040F6460084420CD040F600
:103270006A10844208D0B4F5587F05D0B4F5187FA1
:1032800002D0B4F5B07F00D104E040F2C23122A0F8
:1032900000F006FD40F66A1084420ED119488542BE
:1032A00005D01948854202D01848854200D104E073
:1032B00040F2C63118A000F0F3FCC4F3421804F049
:1032C0001F06012000FA06F6B8F1010F02D1A88905
:1032D000064007E0B8F1020F02D1288A064001E05B
:1032E000A88A06402712012000FA07F7288807401D
:1032F0001EB117B14FF0010901E04FF00009484637
:10330000BDE8F0870038014000440040004800401C
:10331000004C0040005000402E2E5C4C69627261EF
:10332000726965735C53544D3332463130785F5364
:1033300074645065726970685F4472697665725C26
:103340007372635C73746D3332663130785F75739A
:103350006172742E630000002DE9F04705460C46AB
:1033600017464FF00008C246C1460026384885423D
:103370000BD03848854208D03748854205D03748B9
:10338000854202D03648854200D104E040F28911DE
:1033900034A000F085FC282C19D040F2277084421C
:1033A00015D040F22660844211D040F2255084426C
:1033B0000DD040F22440844209D040F646008442B9
:1033C00005D040F66A10844201D0602C00D104E0A0
:1033D0004FF4C57123A000F063FC0FB1012F00D1A1
:1033E00004E040F28B111FA000F05AFC40F66A1076
:1033F00084420ED11648854205D01648854202D037
:103400001548854200D104E040F28F1115A000F06C
:1034100047FC2E46C4F3421804F01F0A012000FAAC
:103420000AF9B8F1010F01D10C3605E0B8F1020F2D
:1034300001D1103600E0143627B1306840EA0900A7
:10344000306003E0306820EA09003060BDE8F087B2
:10345000003801400044004000480040004C00405B
:10346000005000402E2E5C4C696272617269657377
:103470005C53544D3332463130785F537464506539
:10348000726970685F4472697665725C7372635CBE
:1034900073746D3332663130785F75736172742E78
:1034A000630000002DE9F04786B005460C46002673
:1034B000B24600BFB14600276B4885420BD06B482F
:1034C000854208D06A48854205D06A48854202D0C4
:1034D0006948854200D103E0B82168A000F0E0FB14
:1034E000206820B175492068884200D203E0B921E4
:1034F00062A000F0D5FBA08818B1A088B0F5805F6D
:1035000000D103E0BA215DA000F0CAFBE08858B109
:10351000E088B0F5805F07D0E088B0F5005F03D0A9
:10352000E088B0F5405F00D103E0BB2153A000F07C
:10353000B7FB208938B12089B0F5806F03D020898E
:10354000B0F5C06F00D103E0BC214CA000F0A8FB97
:1035500060894FF6F371084010B9608900B103E04B
:10356000BD2146A000F09CFBA08958B1A089B0F510
:10357000807F07D0A089B0F5007F03D0A089B0F587
:10358000407F00D103E0BE213CA000F089FBA08970
:1035900068B13548854205D03448854202D0344868
:1035A000854200D103E0C22134A000F079FB2F4610
:1035B0002E8A4CF6FF700640E08806432E82AE89C4
:1035C0004EF6F3100640A08821890843618908431C
:1035D0000643AE81AE8A4FF6FF400640A0890643FF
:1035E000AE8201A8FDF746FF1F48874202D1DDF8F1
:1035F00010A001E0DDF80CA0A88900F4004040B163
:103600000AEBCA0000EB0A1021684900B0FBF1F890
:1036100007E00AEBCA0000EB0A1021688900B0FB42
:10362000F1F86420B8FBF0F006013009642101FBD9
:103630001089A88900F4004040B1322000EBC90095
:10364000B0FBF1F000F00700064308E0322000EB89
:1036500009106421B0FBF1F000F00F0006432E8149
:1036600006B0BDE8F087000000380140004400408B
:1036700000480040004C0040005000402E2E5C4CA2
:1036800069627261726965735C53544D33324631BD
:1036900030785F5374645065726970685F44726912
:1036A0007665725C7372635C73746D33326631304D
:1036B000785F75736172742E6300000021AA440064
:1036C00010B504460C4884420BD00C48844208D004
:1036D0000B48844205D00B48844202D00A488442F9
:1036E00000D104E04FF4197108A000F0D9FAA088C5
:1036F000C0F3080010BD0000003801400044004045
:1037000000480040004C0040005000402E2E5C4C11
:1037100069627261726965735C53544D333246312C
:1037200030785F5374645065726970685F44726981
:103730007665725C7372635C73746D3332663130BC
:10374000785F75736172742E6300000070B5054672
:103750000E46002400BF0AE0295D0C48027800787C
:10376000401C0A4B18700A488154601CC4B2B44211
:10377000F2DB0848008800F0800030B9012240F2F6
:10378000277104480C38FFF7E7FD70BD8200002068
:103790008A2100200C44004000BFFEE7014609B921
:1037A00000207047C8B220B1C8B20E4A105C401C5D
:1037B000F7E701F47F4028B10A48C1F30722805C93
:1037C0000930EEE701F47F0028B10648C1F3074253
:1037D000805C1130E5E7034800EB11600078193098
:1037E000DFE70000218E000803490868884201D005
:1037F000012070470020FCE74403002070B5044618
:1038000024B95A22114912A001F070FBA16AE069A3
:10381000884205D9A18DA06A0844E16988420AD28C
:10382000214610A002F006FCFCF718FD054600BF7B
:10383000002DFDD108E0A06A2030E169814203D863
:1038400021460FA002F0F6FB70BD0000E78F0008D4
:1038500074687265616420213D2052545F4E554C5E
:103860004C0000007468726561643A2573207374BB
:1038700061636B206F766572666C6F770A0000007B
:103880007761726E696E673A202573207374616385
:103890006B20697320636C6F736520746F20656E95
:1038A00064206F6620737461636B20616464726569
:1038B00073732E0A000000002DE9FC5F04468B465E
:1038C00016461F46DDE90C9ADDE90E5804F1140096
:1038D0004060006000BF26626762C4F82890A4F8C8
:1038E0002CA0A28D2321A06A02F094FDB4F82CC074
:1038F000A36A63441A1F134BD4E9080102F0B0FA1B
:10390000E061202D04DB6E220F4910A001F0EEFAD9
:103910003034A5716571C4F81480C4F81880002093
:1039200020602071A064E064303C00902346104A7F
:103930002146019004F14C0004F07AF80020BDE823
:10394000FC9F00009D730008359000087072696F3D
:1039500072697479203C2052545F54485245414466
:103960005F5052494F524954595F4D415800000031
:10397000557700082DE9F04704460E46174698464D
:10398000DDF8209084F80990607A20F001006072E0
:10399000E66127620020A062C4F82480002506E0CA
:1039A00004F1140101EBC50002F07EFB6D1C012D3A
:1039B000F6DBBDE8F08710B50246002001460EE0B8
:1039C00002F1140303EBC100D0E900436360D0E9C6
:1039D000003423604060006000BF481C014601299C
:1039E000EEDB10BD2DE9F04704460E4617464FF0BA
:1039F000000804B126B9A622154916A001F076FAEE
:103A0000E56C25B9A82212491DA001F06FFAFCF758
:103A100025FC8146286801280AD001202860206CF6
:103A200001233A463146D0F810C02046E04701E075
:103A30006FF006084846FCF715FCB8F1000F02D1FC
:103A40003846BDE8F087404603F066FA0020F8E704
:103A5000799100082873657269616C20213D2052BC
:103A6000545F4E554C4C29202626202864617461F1
:103A700020213D2052545F4E554C4C29000000003F
:103A800072785F646D6120213D2052545F4E554C29
:103A90004C0000002DE9F047044688461646256D87
:103AA0004FF0FF3332464146281D01F0D1FC074656
:103AB000CFB9FCF7D3FB8146286801280DD001203F
:103AC00028604846FCF7CEFB206C02233246414674
:103AD000D0F810C02046E04702E04846FCF7C2FBA1
:103AE0003046BDE8F087384603F016FA0020F8E7C4
:103AF0002DE9F04706460F46154626B95F221B49B9
:103B00001B4801F0F3F9A846F46C24B96322174965
:103B100018A001F0EBF922E0FCF7A0FB8246E08858
:103B2000A18888420FD0E188206810F80190E088D1
:103B3000401CE080E188B06CC0F38F20814206DB3E
:103B40000020E08003E05046FCF78CFB09E0504683
:103B5000FCF788FB87F800907F1C6D1E00BF002DCE
:103B6000DAD100BFA8EB0500BDE8F0875B91000843
:103B7000383C000872785F6669666F20213D2052EC
:103B8000545F4E554C4C00002DE9F04105460E4661
:103B9000144625B989221149114801F0A7F9A04618
:103BA0002F6D27B98D220D490EA001F09FF90FE06E
:103BB0003178286C826828469047401C28B94FF01D
:103BC000FF31384601F024FA02E0761C641E00BF83
:103BD000002CEDD1A8EB0400BDE8F0816A9100084B
:103BE000383C0008747820213D2052545F4E554CDB
:103BF0004C0000002DE9F04106460F46144626B958
:103C00002E220C490CA001F071F9A0460AE0306C9C
:103C1000C1683046884705463D707F1C641E0A2DEA
:103C200000D101E0002CF2D100BFA8EB0400BDE8F8
:103C3000F08100003B91000873657269616C20217E
:103C40003D2052545F4E554C4C0000002DE9F04190
:103C500004460E46154624B940220F490F4801F08C
:103C600045F92F4612E030780A2808D1207E00F06E
:103C7000400020B1206C0D218268204690473178A9
:103C8000206C826820469047761C6D1E002DEAD17C
:103C9000781BBDE8F08100004B910008383C00081B
:103CA00004460D4606A002F0C5F921460EA002F01A
:103CB000C1F9294611A002F0BDF900BFFEE70000DE
:103CC0000A0D2057726F6E6720706172616D6574A6
:103CD00065722076616C75652064657465637465D2
:103CE00064206F6E0D0A0000202020202020206616
:103CF000696C65202025730D0A000000202020201B
:103D00002020206C696E65202025640D0A000000CB
:103D100010B54FF400510848FDF71EF84FF4FA7043
:103D200003F036FB4FF400510348FDF76DF841F204
:103D3000883003F02DFB10BD0010014070B5044623
:103D400000250948008800F4004058B100200649C9
:103D50000988C1F30E01054A505421461046FCF76C
:103D6000A1FB0546284670BD7C000020001E0020F7
:103D70002DE9F04105460F46002016490870FFF76F
:103D8000C7FF642214A11AA000F09CF940F2DC5095
:103D900003F0FEFA642217A118A000F093F978B995
:103DA00018A0FFF7CBFF044617A1A01CFCF77AFB75
:103DB000064600203070A21C14A12846FCF7C4FA65
:103DC00015B90120BDE8F08139462846FDF726F9EE
:103DD0000020F7E7500000205377697463682041A2
:103DE0005420436F6D6D616E64204D6F64652100DA
:103DF0002B2B2B00436869700000000041542B4DB1
:103E000041430000307800000D00000025730000E1
:103E10002DE9FF4707460020039002900190009093
:103E200032222EA12FA000F04DF9002854D12FA04E
:103E3000FFF784FF80462EA108F10100FCF732FB5A
:103E400004460020207008F101022AA103A8FCF713
:103E50007BFAA4EB0800401EC1B203A8FCF743FCA8
:103E6000387023A1601CFCF71DFB0546002028705C
:103E7000621C20A102A8FCF767FA281B401EC1B2F1
:103E800002A8FCF730FC787019A1681CFCF70AFB4B
:103E90000646002030706A1C16A101A8FCF754FAEF
:103EA000701B401EC1B201A8FCF71DFCB8700FA129
:103EB000701CFCF7F7FA8146002089F80000721C9C
:103EC0000CA16846FCF740FAA9EB0600401EC1B2FF
:103ED0006846FCF708FCF870BDE8FF87444843508B
:103EE0000000000041542B49503D3F002C000000D1
:103EF0002E0000002573000008B501211020FDF7F9
:103F00001BFA4FF40050ADF8000010208DF80300AC
:103F100003208DF8020069460B48FCF733FC0E20A5
:103F2000ADF8000004208DF8030069460648FCF750
:103F300029FC4FF400510448FCF766FF4FF4E130D0
:103F400004F0B0FA08BD0000001001407CB5002468
:103F50000025012669E036480078002862D000205C
:103F600033490870002413E03248005D3249095D8E
:103F700088420BD0002505E02F48405D2D4948556B
:103F8000681CC5B2042DF7DB002603E0601CC4B238
:103F9000042CE9DB00BF1EB101202849087045E070
:103FA0002548C07824498978CDE900102248437813
:103FB000027823A12548FCF7C7F90020244908709E
:103FC000322224A129A000F07DF8294800681F4969
:103FD000CDE900102748C268274828A103682C486B
:103FE000FCF7B2F964222BA1294800F06BF80120FC
:103FF000174908704FF496722AA12FA000F062F8BA
:1040000040F6B83003F0C4F902E0012003F0C0F933
:1040100008212B48FCF71CFE0128F6D00120074997
:10402000087003E0012003F0B3F994E700BF7CBD02
:104030009F00002051000020A80000209E000020CA
:1040400025642E25642E25642E256400A01D0020E5
:104050005000002053776974636820415420436FF7
:104060006D6D616E64204D6F646521002B2B2B00FC
:104070005C0000206C0000205800002041542B53AD
:104080004F434B3D25732C25732C25732C25730032
:10409000C81E002053657420536F636B6574204302
:1040A00046473A00446576696365205265737461DA
:1040B00072742E2E2E00000041542B5253540000D7
:1040C000001001402DE9F04106460D461446002738
:1040D0000020114908803046FEF716FEC5B1BCB17C
:1040E0000FE00A2003F054F90B48008800F4004068
:1040F00038B12846FFF722FE00B106E0002006494D
:104100000880601E80B2041EEBD100BF04B90127F5
:104110003846BDE8F08100007C0000201CB500247A
:1041200005E02948005D29490855601CC4B2042CEB
:10413000F7DB2548C07824498978CDE9001022486A
:104140004378027822A12548FCF7FEF80020244994
:104150000870322223A129A0FFF7B4FF2848006885
:104160001E49CDE900102748C268274827A10368E7
:104170002B48FCF7E9F864222AA12948FFF7A2FF9F
:104180000120174908704FF496722AA12EA0FFF75C
:1041900099FF40F6B83003F0FBF802E0012003F08D
:1041A000F7F808212A48FCF753FD0128F6D02949E1
:1041B000022000F071FC2749022000F03BFC0120A6
:1041C000254908701CBD0000A800002051000020F7
:1041D00025642E25642E25642E256400A01D002054
:1041E0005000002053776974636820415420436F66
:1041F0006D6D616E64204D6F646521002B2B2B006B
:104200005C0000206C0000205800002041542B531B
:104210004F434B3D25732C25732C25732C257300A0
:10422000C81E002053657420536F636B6574204370
:1042300046473A0044657669636520526573746148
:1042400072742E2E2E00000041542B525354000045
:1042500000100140740100209E00002000B587B0CE
:1042600000200390049005900690234908703222A4
:1042700022A128A0FFF726FFFF2127488078CDE95B
:10428000000125484378027824A103A8FCF75CF8D4
:104290002548006803A9CDE900102448C2682448D5
:1042A00024A103682848FCF74FF8642227A1264878
:1042B000FFF708FF0120104908704FF4967227A1FC
:1042C0002BA0FFF7FFFE40F6B83003F061F802E0E4
:1042D000012003F05DF804212748FCF7B9FC012810
:1042E000F6D02649022000F0D7FB2449022000F036
:1042F000A1FB07B000BD0000500000205377697497
:10430000636820415420436F6D6D616E64204D6F72
:10431000646521002B2B2B00AC00002025642E258A
:10432000642E25642E2564005C0000206C000020B3
:104330005800002041542B534F434B3D25732C25EF
:10434000732C25732C257300C81E00205365742020
:10435000536F636B6574204346473A004465766942
:10436000636520526573746172742E2E2E000000F6
:1043700041542B5253540000001001409C01002076
:1043800070B504460D46002600203C490870FFF732
:10439000BFFC32223AA140A0FFF794FE32223FA197
:1043A00043A0FFF78FFE002820D119E04FF47A7068
:1043B00002F0EEFF08214148FCF74AFC00B914E086
:1043C00074B93FA241A14248FBF7BEFF642241A15C
:1043D0003F48FFF777FE642243A14AA0FFF772FE31
:1043E000201EA4F101018CB2E0D12EE041F2883010
:1043F00002F0CEFF642247A14CA0FFF763FE4FF40A
:104400007A7002F0C5FF4FF496724BA14FA0FFF7F0
:1044100059FE40F6B83002F0BBFF322218A11EA0B0
:10442000FFF750FE4FF4FA6002F0B2FF24A227A17A
:104430002748FBF789FF642226A12548FFF742FEA3
:10444000642229A12FA0FFF73DFE02211B48FCF7A3
:10445000FFFB80B909E04FF47A7002F099FF701CFD
:10446000C6B2AE4201DB012070BD08211348FCF743
:10447000EFFB0028EFD10020F6E7000050000020FD
:1044800053776974636820415420436F6D6D616E8A
:1044900064204D6F646521002B2B2B005769466902
:1044A00020526F6C65203D205354412E00000000C7
:1044B00041542B524F4C453D3F000000001001403D
:1044C00041542B5354413D666600000025730000A3
:1044D000C81E002044656C20416C6C205354412060
:1044E00050726F66696C6500456E74657220536D1D
:1044F000617274636F6E666967204D6F64652E2EFE
:104500002E00000041542B534C3D736D6172746357
:10451000666700004368616E6765205769466920D9
:10452000526F6C65203D205354412E0041542B5254
:104530004F4C453D535441004465766963652052B4
:104540006573746172742E2E2E00000041542B523C
:104550005354000010B502E0012002F019FF782149
:104560001E20FFF70DFF0028F6D10248FFF750FC90
:1045700010BD0000AC000020C0B04FF48071684650
:10458000FBF7C1FF00231A4699A19C4802F04EF99F
:10459000FFF7B2FC9A499B48FFF7EAFBFDF7EEF8FC
:1045A000FDF7D8F8FDF7B6FB9749002000F074FA44
:1045B0009549012000F070FA9449012000F03AFA80
:1045C0004FF4E13003F0D2FE11E191480078062863
:1045D0007ED2DFE800F003090F32384BFFF7BAFF55
:1045E00001208B490870FEE0FFF738FE0220884961
:1045F0000870F8E08748007800F0010058B100200A
:10460000844908708449022000F046FA04F0FCF95D
:1046100000207F49087081480078012806D10020D9
:104620007E49087011217E48FFF790F87D48007898
:1046300010B1032076490870D5E0FFF76FFD042024
:1046400073490870CFE07848007801280DD1112116
:104650007348FFF77BF805206D4908706B4903200C
:1046600000F0E8F9654802F005F9BCE06E48007812
:1046700001286DD16D4908706D48007880B1002027
:104680006B4908706B48007850B16B48007800EBBC
:104690004000092202EB8000C1B26148FFF756F8E2
:1046A0005C48007800F0010050B1002059490870C2
:1046B0000021A12003F05CFF0B215948FFF746F8C9
:1046C0005448007800F02000202810D1002000E09D
:1046D00088E0504908705949032000F0ABF90021E7
:1046E000702003F045FF0B214D48FFF72FF8544889
:1046F0000078E8B10020524908704B490870012049
:104700005049087000204749087048708870C87088
:104710000021032000F0ECF84B49022000F0BCF926
:104720003D49022000F086F90120394908705AE01D
:1047300046480078002854D00020444908700021E1
:10474000742003F015FF0D213548FEF7FFFF48E008
:1047500035480078002844D10021032000F0C8F833
:104760003949022000F098F92B49022000F062F943
:10477000FFF7ECFB2549032000F05CF926490220F5
:1047800000F08AF93049022000F054F91121244840
:10479000FEF7DCFF14E02E4800680C382C49086056
:1047A0000C216846FDF7BEFA38B10121684604F0D5
:1047B0006DF915211A48FEF7C9FF0A2002F0E8FD3D
:1047C000234800680C21B0FBF1F038B120480068A4
:1047D000B0FBF1F201FB12000028DCD001201349EC
:1047E000087000E000BF00BF012002F0D1FDECE640
:1047F0006E657473657153656D000000E01D0020E7
:10480000B0000020B01D00203C020020EC01002080
:104810003D0000202A0000209C010020A400002070
:1048200088280020A80000209E0000203C000020D6
:104830009D0000209C000020B6000020B401002054
:10484000A2000020B700002074010020A300002077
:10485000940000200246002107E0064850F821009D
:10486000904201D108467047491C0A29F5D34FF000
:10487000FF30F8E70401002008B501210820FCF70B
:104880005BFD4FF4E040ADF8000004208DF803001C
:1048900069460248FBF776FF08BD0000000C0140A6
:1048A0002DE9F0414FF00008FCF732FB0746EFB16D
:1048B000032080EAA7000007050E002410E0012075
:1048C00002F066FDFCF724FB064616B945F0020827
:1048D00008E0072C02D145F0030803E0601CC4B2D5
:1048E0000A2CECDB00BF4046BDE8F0814046FBE708
:1048F00070B504460D464DB1094A32F8242091B2F4
:10490000084A52F82400FCF77FFA08E0044A32F81B
:10491000242091B2034A52F82400FCF71DFA70BD1E
:10492000D4000020BC00002001F086F900F02CF833
:104930001149002000F07EF80F49012000F07AF8BC
:1049400000200E49087015E00D48007870B10B4842
:104950000078401C0949087008460078042805DBE7
:104960000020087006490870064908704FF47A70F4
:1049700002F00EFDE8E700003C02002028000020C5
:104980009E0000203C00002038B500241D4800781F
:1049900000B138BD01F050F9002413E04FF0FF30B2
:1049A000194941F82400002509E04FF0FF3004EBDD
:1049B0008401164A02EBC10141F825006D1C0A2D45
:1049C000F3D3641C062CE9DB00240EE006200090E3
:1049D0000F4800EB84024FF47A730E490EA002F0E8
:1049E000E9FF0B4941F82400641C062CEEDB002390
:1049F00001220CA10E4801F019FF012001490870A5
:104A000000BFC6E754020020B02A0020C0290020C1
:104A1000A8290020118000086C65647365715469D1
:104A20006D6572006C656473657153656D0000009F
:104A3000C82A002070B504460E463046FFF70AFF2C
:104A40000546002D00DA70BD4FF0FF310E4801F031
:104A50003BFF002004EB84010C4A02EBC10141F84A
:104A60002500204603F0FAFC074801F003FF084840
:104A700050F82400A84204D1064901EB840003F059
:104A8000C7FA00BFDFE70000C82A0020C0290020C5
:104A9000B02A0020A829002070B504460D462846FB
:104AA000FFF7D8FE0646002E00DA70BD4FF0FF314A
:104AB0000C4801F009FF4FF0FF3004EB84010A4A73
:104AC00002EBC10141F82600204603F0C7FC05486F
:104AD00001F0D0FE054901EB840003F099FA00BF14
:104AE000E3E70000C82A0020C0290020A8290020F0
:104AF00010B5FBF7B3FB03F071FA002010BD000006
:104B000070B5044626480068844204D28D222549A7
:104B100025A000F0EBF92C480068844204D38E22D3
:104B200020492AA000F0E2F9608820B18F221D49B7
:104B300031A000F0DBF91A49606809684518AC42F9
:104B400015D0688898B92048006885420FD02E4853
:104B50000068A84201D12C48046068686060104871
:104B60000068201A0E4A69681268114488600C496E
:104B7000A06809684618A64211D0708878B9224802
:104B80000068A04201D12048066060687060044857
:104B90000068301A024A616812681144886070BD6A
:104BA00078020020438F00082872745F75696E7464
:104BB000385F74202A296D656D203E3D206865614F
:104BC000705F7074720000007C0200202872745FB5
:104BD00075696E74385F74202A296D656D203C20DC
:104BE0002872745F75696E74385F74202A2968654D
:104BF00061705F656E6400006D656D2D3E75736557
:104C000064203D3D20300000800200202DE9F04F5F
:104C100085B00D469C46DDE90F740E9B04F04008FC
:104C2000B8F1000F02D0DFF8688101E0DFF864819D
:104C3000CDF8008004F01008B8F1000F01D024F086
:104C4000010404F00108B8F1000F02D04FF0300861
:104C500001E04FF02008C246002604F00208B8F137
:104C6000000F11D0002A02DA2D2652420CE004F087
:104C70000408B8F1000F01D02B2605E004F0080865
:104C8000B8F1000F00D02026002142B94FF0300BC0
:104C90008846491C0DF1040909F808B01DE01AE026
:104CA000E146B9F10A0F08D14FF00A0BB2FBFBFE47
:104CB0000BFB1E28B2FBFBF202E002F00F08120908
:104CC00000BFDDF8009019F808B08846491C0DF1C6
:104CD000040909F808B0002AE2D1B94200DD0F4604
:104CE000DB1B04F01108B8F1000F10D116B1002B36
:104CF00000DD5B1E06E0A84203D84FF0200880F8D4
:104D00000080401CB3F10008A3F10103F3DC26B1DD
:104D1000A84201D806705B1E401C04F01008B8F1D0
:104D2000000F0AD104E0A84201D880F800A0401C7E
:104D3000B3F10008A3F10103F5DC06E0A84203D8B3
:104D40004FF0300880F80080401CB8467F1E884530
:104D5000F4DC08E0A84205D80DF1040818F8018039
:104D600080F80080401CB1F10008A1F10101F1DCE4
:104D700006E0A84203D84FF0200880F80080401CCD
:104D8000B3F10008A3F10103F3DC05B0BDE8F08F37
:104D9000328F0008218F00087FB5052014214FF4C1
:104DA0000072384BCDE90032CDE902100023364ABB
:104DB00036A1374802F0ACFB044614B9344802F07F
:104DC00053FC052011214FF48072324BCDE90032A3
:104DD000CDE902100023304A30A1314802F098FB9F
:104DE000044614B92E4802F03FFC052013214FF46D
:104DF00080522C4BCDE90032CDE9021000232A4A23
:104E00002AA12C4802F084FB044614B9294802F078
:104E10002BFC05200F214FF40072274BCDE9003207
:104E2000CDE902100023254A25A1274802F070FB96
:104E3000044614B9244802F017FC052010214A0149
:104E4000224BCDE90032CDE902100023204A21A1F6
:104E5000224802F05DFB044614B9204802F004FC2D
:104E6000142008210B020022CDE900101C491DA0CE
:104E700002F066FA054615B1284602F0F5FB00205F
:104E800004B070BD78030020294900086C656400F7
:104E90007805002078160020450F00084B65790042
:104EA00078170020F8050020794500086363333245
:104EB00030300000F8150020F8170020B90E000867
:104EC0004865617274000000F8190020781A00200B
:104ED0000F0700084461746100000000781C002086
:104EE000415F0008696E697400000000F8B504466F
:104EF0000D461646002000900A48006858B933460F
:104F00002A46214608A001F095F800BF9DF8000050
:104F10000028FBD005E0324629462046014B1B689D
:104F20009847F8BD6C02002028257329206173730F
:104F3000657274696F6E206661696C656420617466
:104F40002066756E6374696F6E3A25732C206C69E8
:104F50006E65206E756D6265723A2564200A0000E8
:104F600070B5044624B97222104911A0FFF7BEFFA4
:104F70002068012800D170BDFBF770F906460120BA
:104F80002060201D01F0C9F858B96068A0F114052F
:104F9000284602F0FBFA3046FBF764F901F07AFB91
:104FA00002E03046FBF75EF900BFE4E73492000808
:104FB000636F6D706C6574696F6E20213D20525473
:104FC0005F4E554C4C00000070B5044624B92322B6
:104FD000084909A0FFF78AFFFBF740F905460020C2
:104FE0002060201D4060006000BF2846FBF73AF9B2
:104FF00070BD00000E920008636F6D706C6574697F
:105000006F6E20213D2052545F4E554C4C000000E5
:105010002DE9F341054625B932222F492FA0FFF78C
:1050200065FF002602F0E6FA0446FBF717F907468B
:105030002868012846D0281D01F06FF820B93B22CE
:1050400025492CA0FFF752FF019810B96FF0010617
:105050003BE000202063204602F04AFB281D04F1BB
:1050600014014268116042684A604160086000BFF4
:1050700000BFFBF7F3F8804600F07AFF40B1164915
:1050800028A000F0D7FF4E2213492FA0FFF72EFFD4
:105090004046FBF7E7F800BF0198002809DD01AAA8
:1050A000002104F14C0002F053FC04F14C0002F02A
:1050B000F7FC3846FBF7D6F801F0ECFA266BFBF765
:1050C000CDF807460020286000BF3846FBF7CAF835
:1050D0003046BDE8FC81000021920008636F6D70CE
:1050E0006C6574696F6E20213D2052545F4E554CA3
:1050F0004C00000072745F6C6973745F6973656D56
:10510000707479282628636F6D706C6574696F6E92
:105110002D3E73757370656E6465645F6C6973743E
:105120002929000046756E6374696F6E5B25735D97
:10513000207368616C6C206E6F74207573656420D9
:10514000696E204953520A003000000010B5044C2B
:1051500002E020688047241D02488442F9D310BD34
:10516000C4930008C893000810B5044C02E02068FE
:105170008047241D02488442F9D310BDC89300081B
:10518000CC93000870B505460A480668284600F02A
:1051900035FA044664B10748006818B1054800684C
:1051A00000F000FA4321204600F050FA0148046064
:1051B000304670BD680200202DE9F04104460D46DE
:1051C00016461F4624B929220F4910A0FFF78EFE6C
:1051D000276225806680002060602081608104F164
:1051E000100000F064FF04F1180000F060FFE80018
:1051F00000F0B6FFE060E06818B96FF00400BDE8A9
:10520000F0810020FBE7000047920008717565758A
:105210006520213D2052545F4E554C4C000000004B
:105220002DE9F04104460E4617462CB94FF488721A
:10523000134914A0FFF75AFE2088401E85B2FBF7E1
:105240000DF8804620896189884206D14046FBF7E7
:1052500009F86FF00300BDE8F08120892840E1687B
:1052600051F83000306020892840E16801EBC0002F
:10527000406838604046FAF7F5FF0020EBE7000091
:105280007F920008717565756520213D2052545F3D
:105290004E554C4C000000002DE9FF5F04460F46C0
:1052A000904624B9A922514951A0FFF71FFE27B902
:1052B000AA224E4953A0FFF719FEB8F1000F04D1FE
:1052C000AB224A4954A0FFF711FE002602F092F9E2
:1052D00005462088401E1FFA80F9FAF7BFFF824674
:1052E0003BE0039810B96FF0010673E000BFFAF7D6
:1052F000B5FF834600F03CFE40B13C494AA000F0B7
:1053000099FEBC22394951A0FFF7F0FD5846FAF743
:10531000A9FF00BF00202863284602F0E9F905F143
:10532000140104F1180000F0E1FE0398002809DDE3
:1053300003AA002105F14C0002F00AFB05F14C0024
:1053400002F0AEFB5046FAF78DFF01F0A3F92E6B89
:10535000FAF784FF824606B13CE0208961898842E1
:10536000BFD0208900EA0900E16851F830003860B8
:10537000208900EA0900E16801EBC0004068C8F834
:1053800000002089401C20816068012821D16089AB
:105390002189401A618888421BDC0020606004F18A
:1053A000100000F0C2FE50B92069A0F11405284693
:1053B00002F0ECF85046FAF755FF01F06BF9206A5D
:1053C00018B103212046226A9047304604B0BDE858
:1053D000F09F00BF5046FAF745FF2EB9206A18B17A
:1053E00001212046226A90473046EFE76D9200087F
:1053F000717565756520213D2052545F4E554C4CAA
:1054000000000000646174615F70747220213D20AF
:1054100052545F4E554C4C0073697A6520213D20F3
:1054200052545F4E554C4C0046756E6374696F6EF6
:105430005B25735D207368616C6C206E6F742075E2
:1054400073656420696E204953520A0030000000E1
:105450002DE9FF5F04468846914624B94B22414915
:1054600041A0FFF743FD002602F0C4F8054620885E
:10547000401E87B2FAF7F2FE82463DE001206060EE
:10548000039810B96FF0010660E000BFFAF7E6FE7E
:10549000834600F06DFD40B1324938A000F0CAFDEE
:1054A0005F2230493EA0FFF721FD5846FAF7DAFEA9
:1054B00000BF00202863284602F01AF905F1140104
:1054C00004F1100000F012FE0398002809DD03AA81
:1054D000002105F14C0002F03BFA05F14C0002F00E
:1054E000DFFA5046FAF7BEFE01F0D4F82E6BFAF759
:1054F000B5FE824606B129E060892189401A2188DB
:105500008842BBD060893840E16841F830806089CA
:105510003840E16801EBC000C0F804906089401C8D
:10552000608104F1180000F000FE70B9A069A0F1DC
:105530001405284602F02AF85046FAF793FE01F0C7
:10554000A9F8304604B0BDE8F09F00BF5046FAF716
:1055500089FE2EB9206A18B102212046226A90479E
:105560003046EFE75A920008717565756520213D58
:105570002052545F4E554C4C0000000046756E633F
:1055800074696F6E5B25735D207368616C6C206E4F
:105590006F74207573656420696E204953520A0048
:1055A0003000000070B50446002524B9F1220E49F0
:1055B0000EA0FFF79BFCA07E10B94FF0FF3070BD2E
:1055C000A07E401EA076A07E08B10020F7E7E06A2A
:1055D00018B12046E16A884705460DB1A81D08B9F3
:1055E000002020832846EAE7BF8B00086465762008
:1055F000213D2052545F4E554C4C00002DE9F041A6
:10560000064601F0F7FF08B100F0DEF80E4D6C68B9
:1056100010E0A4F10C0708223146384601F041FDA4
:1056200038B901F0E7FF08B100F0DEF83846BDE810
:10563000F0812468281D8442EBD101F0DBFF08B122
:1056400000F0D2F80020F2E70003002070B5044615
:105650000E46002524B9B6221E491FA0FFF746FCBE
:10566000A07D00F0100088B9606A58B12046616AD8
:105670008847054635B12A4621461BA000F0DAFCD2
:10568000284670BDE08A40F01000E082A07D00F066
:10569000080030B1207E00F0080010B16FF0060065
:1056A000EFE7A06A20B131462046A26A904705463E
:1056B0000DB1A81D60B946F008002083A07E401CF3
:1056C000A076A07E20B9DF22024915A0FFF70EFCCC
:1056D0002846D6E7B08B000864657620213D20522D
:1056E000545F4E554C4C0000546F20696E697469CC
:1056F000616C697A65206465766963653A25732013
:105700006661696C65642E20546865206572726FED
:105710007220636F64652069732025640A000000AD
:105720006465762D3E7265665F636F756E742021C9
:105730003D20300070B504460D46164614B94FF0B2
:10574000FF3070BD2846FFF759FF10B14FF0FF3012
:10575000F7E72A460721204600F054FFE6820020A2
:10576000A07600BFEDE700002DE9F04104460D46AC
:1057700016461F462CB94FF4A0720E490EA0FFF733
:10578000B5FBA07E30B94FF0FF3001F0C5FB002023
:10579000BDE8F081606B38B13B4632462946204671
:1057A000D4F834C0E047F3E76FF0050001F0B4FB34
:1057B0000020EDE7DE8B000864657620213D205255
:1057C000545F4E554C4C000010B5FAF747FD0446A7
:1057D00004480088401C00B2024908802046FAF7BD
:1057E00041FD10BD3403002010B5FAF737FD044623
:1057F0000B480088401E00B2094908800846B0F9ED
:105800000000002807DC002008802046FAF72AFD67
:1058100000F040FF02E02046FAF724FD10BD000032
:105820003403002070B5054600BFFAF717FD0646A1
:1058300000F09EFB48B1394939A000F0FBFB40F273
:10584000FD1236493FA0FFF751FB3046FAF70AFD3B
:1058500000BF05B970BD05F0030028B140F2012278
:105860002E4939A0FFF742FB43480068854203D325
:1058700042480068854205D340F202222749404849
:10588000FFF734FB00BF3F48006818B128463D4988
:105890000968884700BF38480068854203D3374805
:1058A0000068854202D300BF00BFD3E7A5F10C0416
:1058B00000BF00BF4FF0FF31334801F005F86088AA
:1058C00028B94FF40772154930A0FFF70FFB208865
:1058D000B0F5F55F05D040F21D2210492EA0FFF76C
:1058E00005FB002060804FF4F550208031480068AF
:1058F000844201D22F4804601F4960680968611A18
:10590000401A2D490968081A2B4908602046FFF7FC
:10591000F7F81D4800F0AEFF00BF9BE7818F00083D
:1059200046756E6374696F6E5B25735D2073686185
:105930006C6C206E6F74207573656420696E2049ED
:1059400053520A003000000028282872745F7569DD
:105950006E7433325F7429726D656D29202620289C
:1059600052545F414C49474E5F53495A452D3129A6
:1059700029203D3D20300000780200207C020020DC
:105980002093000874020020E82C00206D656D2D26
:105990003E757365640000006D656D2D3E6D616739
:1059A0006963203D3D20484541505F4D4147494393
:1059B00000000000800200208802002070B5FBF784
:1059C00068FB174800684FF47A72B0FBF2F1481E8A
:1059D000B0F1807F00D31BE0481E4FF0E022506101
:1059E00050170F22002807DA13071D0E0D4B00F089
:1059F0000F04241F1D5503E013071C0E0A4B1C54F3
:105A000000BF00204FF0E02290610720106100BF2E
:105A100000F04CFA05A0FFF7B5FBFFF797FB70BD50
:105A20001400002018ED00E000E400E075617274DD
:105A3000310000007047000070B505462C1D2E484F
:105A4000006838B128462C4909688847064606B9D7
:105A500070BD00BF29A0E16B00F0ECFA2BA0216A19
:105A600000F0E8FA2DA0616A00F0E4FA2FA0A16A24
:105A700000F0E0FA31A0E16A00F0DCFA33A021681E
:105A800000F0D8FA35A0616800F0D4FA37A0A16818
:105A900000F0D0FA39A0E16800F0CCFA3BA021690F
:105AA00000F0C8FA3DA0616900F0C4FA3FA0A16906
:105AB00000F0C0FA41A0E16900F0BCFA43A0216BFC
:105AC00000F0B8FA45A0616B00F0B4FA47A0A16BF2
:105AD00000F0B0FA287800F0040038B101F08AFD37
